{
  "_format": "hh-sol-artifact-1",
  "contractName": "OnePieceMint",
  "sourceName": "contracts/OnePieceDapp.sol",
  "abi": [
    {
      "inputs": [
        {
          "internalType": "address",
          "name": "vrfCoordinatorV2Address",
          "type": "address"
        },
        {
          "internalType": "uint64",
          "name": "subId",
          "type": "uint64"
        },
        {
          "internalType": "bytes32",
          "name": "keyHash",
          "type": "bytes32"
        },
        {
          "internalType": "uint32",
          "name": "callbackGasLimit",
          "type": "uint32"
        }
      ],
      "stateMutability": "nonpayable",
      "type": "constructor"
    },
    {
      "inputs": [
        {
          "internalType": "address",
          "name": "have",
          "type": "address"
        },
        {
          "internalType": "address",
          "name": "want",
          "type": "address"
        }
      ],
      "name": "OnlyCoordinatorCanFulfill",
      "type": "error"
    },
    {
      "anonymous": false,
      "inputs": [
        {
          "indexed": true,
          "internalType": "address",
          "name": "owner",
          "type": "address"
        },
        {
          "indexed": true,
          "internalType": "address",
          "name": "approved",
          "type": "address"
        },
        {
          "indexed": true,
          "internalType": "uint256",
          "name": "tokenId",
          "type": "uint256"
        }
      ],
      "name": "Approval",
      "type": "event"
    },
    {
      "anonymous": false,
      "inputs": [
        {
          "indexed": true,
          "internalType": "address",
          "name": "owner",
          "type": "address"
        },
        {
          "indexed": true,
          "internalType": "address",
          "name": "operator",
          "type": "address"
        },
        {
          "indexed": false,
          "internalType": "bool",
          "name": "approved",
          "type": "bool"
        }
      ],
      "name": "ApprovalForAll",
      "type": "event"
    },
    {
      "anonymous": false,
      "inputs": [
        {
          "indexed": false,
          "internalType": "uint256",
          "name": "_fromTokenId",
          "type": "uint256"
        },
        {
          "indexed": false,
          "internalType": "uint256",
          "name": "_toTokenId",
          "type": "uint256"
        }
      ],
      "name": "BatchMetadataUpdate",
      "type": "event"
    },
    {
      "anonymous": false,
      "inputs": [
        {
          "indexed": false,
          "internalType": "uint256",
          "name": "characterId",
          "type": "uint256"
        }
      ],
      "name": "CharacterTraitDetermined",
      "type": "event"
    },
    {
      "anonymous": false,
      "inputs": [
        {
          "indexed": false,
          "internalType": "uint256",
          "name": "_tokenId",
          "type": "uint256"
        }
      ],
      "name": "MetadataUpdate",
      "type": "event"
    },
    {
      "anonymous": false,
      "inputs": [
        {
          "indexed": false,
          "internalType": "uint256",
          "name": "characterId",
          "type": "uint256"
        },
        {
          "indexed": false,
          "internalType": "address",
          "name": "minter",
          "type": "address"
        }
      ],
      "name": "NftMinted",
      "type": "event"
    },
    {
      "anonymous": false,
      "inputs": [
        {
          "indexed": false,
          "internalType": "uint256",
          "name": "requestId",
          "type": "uint256"
        },
        {
          "indexed": false,
          "internalType": "address",
          "name": "requester",
          "type": "address"
        }
      ],
      "name": "NftRequested",
      "type": "event"
    },
    {
      "anonymous": false,
      "inputs": [
        {
          "indexed": true,
          "internalType": "address",
          "name": "previousOwner",
          "type": "address"
        },
        {
          "indexed": true,
          "internalType": "address",
          "name": "newOwner",
          "type": "address"
        }
      ],
      "name": "OwnershipTransferred",
      "type": "event"
    },
    {
      "anonymous": false,
      "inputs": [
        {
          "indexed": true,
          "internalType": "address",
          "name": "from",
          "type": "address"
        },
        {
          "indexed": true,
          "internalType": "address",
          "name": "to",
          "type": "address"
        },
        {
          "indexed": true,
          "internalType": "uint256",
          "name": "tokenId",
          "type": "uint256"
        }
      ],
      "name": "Transfer",
      "type": "event"
    },
    {
      "inputs": [
        {
          "internalType": "address",
          "name": "to",
          "type": "address"
        },
        {
          "internalType": "uint256",
          "name": "tokenId",
          "type": "uint256"
        }
      ],
      "name": "approve",
      "outputs": [],
      "stateMutability": "nonpayable",
      "type": "function"
    },
    {
      "inputs": [
        {
          "internalType": "address",
          "name": "owner",
          "type": "address"
        }
      ],
      "name": "balanceOf",
      "outputs": [
        {
          "internalType": "uint256",
          "name": "",
          "type": "uint256"
        }
      ],
      "stateMutability": "view",
      "type": "function"
    },
    {
      "inputs": [
        {
          "internalType": "uint256",
          "name": "tokenId",
          "type": "uint256"
        }
      ],
      "name": "getApproved",
      "outputs": [
        {
          "internalType": "address",
          "name": "",
          "type": "address"
        }
      ],
      "stateMutability": "view",
      "type": "function"
    },
    {
      "inputs": [
        {
          "internalType": "address",
          "name": "",
          "type": "address"
        }
      ],
      "name": "hasMinted",
      "outputs": [
        {
          "internalType": "bool",
          "name": "",
          "type": "bool"
        }
      ],
      "stateMutability": "view",
      "type": "function"
    },
    {
      "inputs": [
        {
          "internalType": "address",
          "name": "owner",
          "type": "address"
        },
        {
          "internalType": "address",
          "name": "operator",
          "type": "address"
        }
      ],
      "name": "isApprovedForAll",
      "outputs": [
        {
          "internalType": "bool",
          "name": "",
          "type": "bool"
        }
      ],
      "stateMutability": "view",
      "type": "function"
    },
    {
      "inputs": [],
      "name": "name",
      "outputs": [
        {
          "internalType": "string",
          "name": "",
          "type": "string"
        }
      ],
      "stateMutability": "view",
      "type": "function"
    },
    {
      "inputs": [],
      "name": "owner",
      "outputs": [
        {
          "internalType": "address",
          "name": "",
          "type": "address"
        }
      ],
      "stateMutability": "view",
      "type": "function"
    },
    {
      "inputs": [
        {
          "internalType": "uint256",
          "name": "tokenId",
          "type": "uint256"
        }
      ],
      "name": "ownerOf",
      "outputs": [
        {
          "internalType": "address",
          "name": "",
          "type": "address"
        }
      ],
      "stateMutability": "view",
      "type": "function"
    },
    {
      "inputs": [
        {
          "internalType": "uint256",
          "name": "requestId",
          "type": "uint256"
        },
        {
          "internalType": "uint256[]",
          "name": "randomWords",
          "type": "uint256[]"
        }
      ],
      "name": "rawFulfillRandomWords",
      "outputs": [],
      "stateMutability": "nonpayable",
      "type": "function"
    },
    {
      "inputs": [],
      "name": "renounceOwnership",
      "outputs": [],
      "stateMutability": "nonpayable",
      "type": "function"
    },
    {
      "inputs": [
        {
          "internalType": "uint256[5]",
          "name": "answers",
          "type": "uint256[5]"
        }
      ],
      "name": "requestNFT",
      "outputs": [],
      "stateMutability": "nonpayable",
      "type": "function"
    },
    {
      "inputs": [
        {
          "internalType": "address",
          "name": "",
          "type": "address"
        }
      ],
      "name": "s_addressToCharacter",
      "outputs": [
        {
          "internalType": "uint256",
          "name": "",
          "type": "uint256"
        }
      ],
      "stateMutability": "view",
      "type": "function"
    },
    {
      "inputs": [
        {
          "internalType": "address",
          "name": "from",
          "type": "address"
        },
        {
          "internalType": "address",
          "name": "to",
          "type": "address"
        },
        {
          "internalType": "uint256",
          "name": "tokenId",
          "type": "uint256"
        }
      ],
      "name": "safeTransferFrom",
      "outputs": [],
      "stateMutability": "nonpayable",
      "type": "function"
    },
    {
      "inputs": [
        {
          "internalType": "address",
          "name": "from",
          "type": "address"
        },
        {
          "internalType": "address",
          "name": "to",
          "type": "address"
        },
        {
          "internalType": "uint256",
          "name": "tokenId",
          "type": "uint256"
        },
        {
          "internalType": "bytes",
          "name": "data",
          "type": "bytes"
        }
      ],
      "name": "safeTransferFrom",
      "outputs": [],
      "stateMutability": "nonpayable",
      "type": "function"
    },
    {
      "inputs": [
        {
          "internalType": "address",
          "name": "operator",
          "type": "address"
        },
        {
          "internalType": "bool",
          "name": "approved",
          "type": "bool"
        }
      ],
      "name": "setApprovalForAll",
      "outputs": [],
      "stateMutability": "nonpayable",
      "type": "function"
    },
    {
      "inputs": [
        {
          "internalType": "bytes4",
          "name": "interfaceId",
          "type": "bytes4"
        }
      ],
      "name": "supportsInterface",
      "outputs": [
        {
          "internalType": "bool",
          "name": "",
          "type": "bool"
        }
      ],
      "stateMutability": "view",
      "type": "function"
    },
    {
      "inputs": [],
      "name": "symbol",
      "outputs": [
        {
          "internalType": "string",
          "name": "",
          "type": "string"
        }
      ],
      "stateMutability": "view",
      "type": "function"
    },
    {
      "inputs": [
        {
          "internalType": "uint256",
          "name": "tokenId",
          "type": "uint256"
        }
      ],
      "name": "tokenURI",
      "outputs": [
        {
          "internalType": "string",
          "name": "",
          "type": "string"
        }
      ],
      "stateMutability": "view",
      "type": "function"
    },
    {
      "inputs": [
        {
          "internalType": "address",
          "name": "from",
          "type": "address"
        },
        {
          "internalType": "address",
          "name": "to",
          "type": "address"
        },
        {
          "internalType": "uint256",
          "name": "tokenId",
          "type": "uint256"
        }
      ],
      "name": "transferFrom",
      "outputs": [],
      "stateMutability": "nonpayable",
      "type": "function"
    },
    {
      "inputs": [
        {
          "internalType": "address",
          "name": "newOwner",
          "type": "address"
        }
      ],
      "name": "transferOwnership",
      "outputs": [],
      "stateMutability": "nonpayable",
      "type": "function"
    },
    {
      "inputs": [
        {
          "internalType": "address",
          "name": "",
          "type": "address"
        }
      ],
      "name": "userTokenID",
      "outputs": [
        {
          "internalType": "uint256",
          "name": "",
          "type": "uint256"
        }
      ],
      "stateMutability": "view",
      "type": "function"
    }
  ],
  "bytecode": "0x6101e0604052606261014081815260a091829190620027b56101603981526020016040518060a0016040528060628152602001620026f16062913981526020016040518060a0016040528060628152602001620028796062913981526020016040518060a0016040528060628152602001620027536062913981526020016040518060a001604052806062815260200162002817606291399052620000a990600990600562000213565b50348015620000b757600080fd5b50604051620028db380380620028db833981016040819052620000da91620002ea565b604080518082018252600c81526b13db99541a5958d94813919560a21b6020808301919091528251808401909352600383526227a82760e91b908301526001600160a01b03861660805290600062000133838262000409565b50600162000142828262000409565b5050506200015f62000159620001bd60201b60201c565b620001c1565b600a80546001600160401b03909416600160a01b026001600160e01b03199094166001600160a01b039095169490941792909217909255600b91909155600c805463ffffffff90921663ffffffff19909216919091179055620004d5565b3390565b600680546001600160a01b038381166001600160a01b0319831681179093556040519116919082907f8be0079c531659141344cd1fd0a4f28419497f9722a3daafe3b4186f6b6457e090600090a35050565b8280548282559060005260206000209081019282156200025e579160200282015b828111156200025e57825182906200024d908262000409565b509160200191906001019062000234565b506200026c92915062000270565b5090565b808211156200026c57600062000287828262000291565b5060010162000270565b5080546200029f906200037a565b6000825580601f10620002b0575050565b601f016020900490600052602060002090810190620002d09190620002d3565b50565b5b808211156200026c5760008155600101620002d4565b600080600080608085870312156200030157600080fd5b84516001600160a01b03811681146200031957600080fd5b60208601519094506001600160401b03811681146200033757600080fd5b60408601516060870151919450925063ffffffff811681146200035957600080fd5b939692955090935050565b634e487b7160e01b600052604160045260246000fd5b600181811c908216806200038f57607f821691505b602082108103620003b057634e487b7160e01b600052602260045260246000fd5b50919050565b601f8211156200040457600081815260208120601f850160051c81016020861015620003df5750805b601f850160051c820191505b818110156200040057828155600101620003eb565b5050505b505050565b81516001600160401b0381111562000425576200042562000364565b6200043d816200043684546200037a565b84620003b6565b602080601f8311600181146200047557600084156200045c5750858301515b600019600386901b1c1916600185901b17855562000400565b600085815260208120601f198616915b82811015620004a65788860151825594840194600190910190840162000485565b5085821015620004c55787850151600019600388901b60f8161c191681555b5050505050600190811b01905550565b6080516121f9620004f8600039600081816105ae015261060901526121f96000f3fe608060405234801561001057600080fd5b50600436106101775760003560e01c806370a08231116100d8578063a362fc8f1161008c578063c87b56dd11610066578063c87b56dd14610323578063e985e9c514610336578063f2fde38b1461037257600080fd5b8063a362fc8f146102dd578063b88c9475146102f0578063b88d4fde1461031057600080fd5b80638da5cb5b116100bd5780638da5cb5b146102b157806395d89b41146102c2578063a22cb465146102ca57600080fd5b806370a0823114610296578063715018a6146102a957600080fd5b806323b872dd1161012f57806342842e0e1161011457806342842e0e146102425780636352211e14610255578063683305d41461026857600080fd5b806323b872dd1461020c57806338e21cce1461021f57600080fd5b8063081812fc11610160578063081812fc146101b9578063095ea7b3146101e45780631fe543e3146101f957600080fd5b806301ffc9a71461017c57806306fdde03146101a4575b600080fd5b61018f61018a366004611b84565b610385565b60405190151581526020015b60405180910390f35b6101ac610396565b60405161019b9190611bf1565b6101cc6101c7366004611c04565b610428565b6040516001600160a01b03909116815260200161019b565b6101f76101f2366004611c39565b61044f565b005b6101f7610207366004611caa565b6105a3565b6101f761021a366004611d5c565b610644565b61018f61022d366004611d98565b600f6020526000908152604090205460ff1681565b6101f7610250366004611d5c565b6106bb565b6101cc610263366004611c04565b6106d6565b610288610276366004611d98565b60106020526000908152604090205481565b60405190815260200161019b565b6102886102a4366004611d98565b61073b565b6101f76107d5565b6006546001600160a01b03166101cc565b6101ac6107e9565b6101f76102d8366004611db3565b6107f8565b6101f76102eb366004611def565b610803565b6102886102fe366004611d98565b60116020526000908152604090205481565b6101f761031e366004611e6d565b610953565b6101ac610331366004611c04565b6109d1565b61018f610344366004611f2d565b6001600160a01b03918216600090815260056020908152604080832093909416825291909152205460ff1690565b6101f7610380366004611d98565b6109dc565b600061039082610a6c565b92915050565b6060600080546103a590611f60565b80601f01602080910402602001604051908101604052809291908181526020018280546103d190611f60565b801561041e5780601f106103f35761010080835404028352916020019161041e565b820191906000526020600020905b81548152906001019060200180831161040157829003601f168201915b5050505050905090565b600061043382610aaa565b506000908152600460205260409020546001600160a01b031690565b600061045a826106d6565b9050806001600160a01b0316836001600160a01b0316036104e85760405162461bcd60e51b815260206004820152602160248201527f4552433732313a20617070726f76616c20746f2063757272656e74206f776e6560448201527f720000000000000000000000000000000000000000000000000000000000000060648201526084015b60405180910390fd5b336001600160a01b038216148061052257506001600160a01b038116600090815260056020908152604080832033845290915290205460ff165b6105945760405162461bcd60e51b815260206004820152603d60248201527f4552433732313a20617070726f76652063616c6c6572206973206e6f7420746f60448201527f6b656e206f776e6572206f7220617070726f76656420666f7220616c6c00000060648201526084016104df565b61059e8383610b0e565b505050565b336001600160a01b037f00000000000000000000000000000000000000000000000000000000000000001614610636576040517f1cf993f40000000000000000000000000000000000000000000000000000000081523360048201526001600160a01b037f00000000000000000000000000000000000000000000000000000000000000001660248201526044016104df565b6106408282610b7c565b5050565b61064e3382610c16565b6106b05760405162461bcd60e51b815260206004820152602d60248201527f4552433732313a2063616c6c6572206973206e6f7420746f6b656e206f776e6560448201526c1c881bdc88185c1c1c9bdd9959609a1b60648201526084016104df565b61059e838383610c95565b61059e83838360405180602001604052806000815250610953565b6000818152600260205260408120546001600160a01b0316806103905760405162461bcd60e51b815260206004820152601860248201527f4552433732313a20696e76616c696420746f6b656e204944000000000000000060448201526064016104df565b60006001600160a01b0382166107b95760405162461bcd60e51b815260206004820152602960248201527f4552433732313a2061646472657373207a65726f206973206e6f74206120766160448201527f6c6964206f776e6572000000000000000000000000000000000000000000000060648201526084016104df565b506001600160a01b031660009081526003602052604090205490565b6107dd610e9b565b6107e76000610ef5565b565b6060600180546103a590611f60565b610640338383610f47565b61080c81611015565b336000908152600e602052604080822092909255600a54600b54600c5493517f5d3b1d30000000000000000000000000000000000000000000000000000000008152600481019190915274010000000000000000000000000000000000000000820467ffffffffffffffff1660248201526003604482015263ffffffff90931660648401526001608484015290916001600160a01b0390911690635d3b1d309060a4016020604051808303816000875af11580156108ce573d6000803e3d6000fd5b505050506040513d601f19601f820116820180604052508101906108f29190611f9a565b6000818152600d602090815260409182902080546001600160a01b031916339081179091558251848152918201529192507ff873236e6cc0ecc5be1a9a35c95ee5b8d1ac4cc7bfef0cc5060391d6cc98e26b91015b60405180910390a15050565b61095d3383610c16565b6109bf5760405162461bcd60e51b815260206004820152602d60248201527f4552433732313a2063616c6c6572206973206e6f7420746f6b656e206f776e6560448201526c1c881bdc88185c1c1c9bdd9959609a1b60648201526084016104df565b6109cb848484846110b0565b50505050565b60606103908261112e565b6109e4610e9b565b6001600160a01b038116610a605760405162461bcd60e51b815260206004820152602660248201527f4f776e61626c653a206e6577206f776e657220697320746865207a65726f206160448201527f646472657373000000000000000000000000000000000000000000000000000060648201526084016104df565b610a6981610ef5565b50565b60006001600160e01b031982167f49064906000000000000000000000000000000000000000000000000000000001480610390575061039082611236565b6000818152600260205260409020546001600160a01b0316610a695760405162461bcd60e51b815260206004820152601860248201527f4552433732313a20696e76616c696420746f6b656e204944000000000000000060448201526064016104df565b600081815260046020526040902080546001600160a01b0319166001600160a01b0384169081179091558190610b43826106d6565b6001600160a01b03167f8c5be1e5ebec7d5bd14f71427d1e84f3dd0314c0f7b2291e5b200ac8c7c3b92560405160405180910390a45050565b6000828152600d60209081526040808320546001600160a01b0316808452600e90925282205483519192909184908290610bb857610bb8611fb3565b602002602001015190506000600582610bd19190611fc9565b610bdc906001612001565b905060006005610bec8386612001565b610bf69190611fc9565b610c01906001612001565b9050610c0d85826112d1565b50505050505050565b600080610c22836106d6565b9050806001600160a01b0316846001600160a01b03161480610c6957506001600160a01b0380821660009081526005602090815260408083209388168352929052205460ff165b80610c8d5750836001600160a01b0316610c8284610428565b6001600160a01b0316145b949350505050565b826001600160a01b0316610ca8826106d6565b6001600160a01b031614610d0c5760405162461bcd60e51b815260206004820152602560248201527f4552433732313a207472616e736665722066726f6d20696e636f72726563742060448201526437bbb732b960d91b60648201526084016104df565b6001600160a01b038216610d875760405162461bcd60e51b8152602060048201526024808201527f4552433732313a207472616e7366657220746f20746865207a65726f2061646460448201527f726573730000000000000000000000000000000000000000000000000000000060648201526084016104df565b610d9483838360016114bf565b826001600160a01b0316610da7826106d6565b6001600160a01b031614610e0b5760405162461bcd60e51b815260206004820152602560248201527f4552433732313a207472616e736665722066726f6d20696e636f72726563742060448201526437bbb732b960d91b60648201526084016104df565b600081815260046020908152604080832080546001600160a01b03199081169091556001600160a01b0387811680865260038552838620805460001901905590871680865283862080546001019055868652600290945282852080549092168417909155905184937fddf252ad1be2c89b69c2b068fc378daa952ba7f163c4a11628f55a4df523b3ef91a4505050565b6006546001600160a01b031633146107e75760405162461bcd60e51b815260206004820181905260248201527f4f776e61626c653a2063616c6c6572206973206e6f7420746865206f776e657260448201526064016104df565b600680546001600160a01b038381166001600160a01b0319831681179093556040519116919082907f8be0079c531659141344cd1fd0a4f28419497f9722a3daafe3b4186f6b6457e090600090a35050565b816001600160a01b0316836001600160a01b031603610fa85760405162461bcd60e51b815260206004820152601960248201527f4552433732313a20617070726f766520746f2063616c6c65720000000000000060448201526064016104df565b6001600160a01b03838116600081815260056020908152604080832094871680845294825291829020805460ff191686151590811790915591519182527f17307eab39ab6107e8899845ad3d59bd9653f200f220920489ca2b5937696c31910160405180910390a3505050565b600080805b60058110156110585783816005811061103557611035611fb3565b60200201516110449083612001565b91508061105081612014565b91505061101a565b50611064600582611fc9565b61106f906001612001565b90507f634fccbf98fc875142862789978822a92147ac902bd85a53dcf58214f3ae33dd816040516110a291815260200190565b60405180910390a192915050565b6110bb848484610c95565b6110c784848484611528565b6109cb5760405162461bcd60e51b815260206004820152603260248201527f4552433732313a207472616e7366657220746f206e6f6e20455243373231526560448201527131b2b4bb32b91034b6b83632b6b2b73a32b960711b60648201526084016104df565b606061113982610aaa565b6000828152600760205260408120805461115290611f60565b80601f016020809104026020016040519081016040528092919081815260200182805461117e90611f60565b80156111cb5780601f106111a0576101008083540402835291602001916111cb565b820191906000526020600020905b8154815290600101906020018083116111ae57829003601f168201915b5050505050905060006111e960408051602081019091526000815290565b905080516000036111fb575092915050565b81511561122d57808260405160200161121592919061202d565b60405160208183030381529060405292505050919050565b610c8d84611674565b60006001600160e01b031982167f80ac58cd00000000000000000000000000000000000000000000000000000000148061129957506001600160e01b031982167f5b5e139f00000000000000000000000000000000000000000000000000000000145b8061039057507f01ffc9a7000000000000000000000000000000000000000000000000000000006001600160e01b0319831614610390565b6001600160a01b0382166000908152600f602052604090205460ff16156113605760405162461bcd60e51b815260206004820152602660248201527f596f75206861766520616c7265616479206d696e74656420796f757220686f7560448201527f7365204e4654000000000000000000000000000000000000000000000000000060648201526084016104df565b60085461136d83826116e8565b61141c816009848154811061138457611384611fb3565b90600052602060002001805461139990611f60565b80601f01602080910402602001604051908101604052809291908181526020018280546113c590611f60565b80156114125780601f106113e757610100808354040283529160200191611412565b820191906000526020600020905b8154815290600101906020018083116113f557829003601f168201915b5050505050611702565b6001600160a01b0383166000908152601060209081526040808320859055601190915281208290556008805460019290611457908490612001565b90915550506001600160a01b0383166000818152600f6020908152604091829020805460ff191660011790558151858152908101929092527f769eff512f395b679667e0062a0e31dad5d22dbc7e6b87f16c3de7e85e663460910160405180910390a1505050565b6001600160a01b03841615806114dc57506001600160a01b038316155b6109cb5760405162461bcd60e51b815260206004820152601860248201527f457272212054686973206973206e6f7420616c6c6f776564000000000000000060448201526064016104df565b60006001600160a01b0384163b1561166957604051630a85bd0160e11b81526001600160a01b0385169063150b7a029061156c90339089908890889060040161205c565b6020604051808303816000875af19250505080156115a7575060408051601f3d908101601f191682019092526115a491810190612098565b60015b61164f573d8080156115d5576040519150601f19603f3d011682016040523d82523d6000602084013e6115da565b606091505b5080516000036116475760405162461bcd60e51b815260206004820152603260248201527f4552433732313a207472616e7366657220746f206e6f6e20455243373231526560448201527131b2b4bb32b91034b6b83632b6b2b73a32b960711b60648201526084016104df565b805181602001fd5b6001600160e01b031916630a85bd0160e11b149050610c8d565b506001949350505050565b606061167f82610aaa565b600061169660408051602081019091526000815290565b905060008151116116b657604051806020016040528060008152506116e1565b806116c0846117d5565b6040516020016116d192919061202d565b6040516020818303038152906040525b9392505050565b610640828260405180602001604052806000815250611875565b6000828152600260205260409020546001600160a01b031661178c5760405162461bcd60e51b815260206004820152602e60248201527f45524337323155524953746f726167653a2055524920736574206f66206e6f6e60448201527f6578697374656e7420746f6b656e00000000000000000000000000000000000060648201526084016104df565b60008281526007602052604090206117a48282612103565b506040518281527ff8e1a15aba9398e019f0b49df1a4fde98ee17ae345cb5f6b5e2c27f5033e8ce790602001610947565b606060006117e2836118f3565b600101905060008167ffffffffffffffff81111561180257611802611c63565b6040519080825280601f01601f19166020018201604052801561182c576020820181803683370190505b5090508181016020015b600019017f3031323334353637383961626364656600000000000000000000000000000000600a86061a8153600a850494508461183657509392505050565b61187f83836119d5565b61188c6000848484611528565b61059e5760405162461bcd60e51b815260206004820152603260248201527f4552433732313a207472616e7366657220746f206e6f6e20455243373231526560448201527131b2b4bb32b91034b6b83632b6b2b73a32b960711b60648201526084016104df565b6000807a184f03e93ff9f4daa797ed6e38ed64bf6a1f010000000000000000831061193c577a184f03e93ff9f4daa797ed6e38ed64bf6a1f010000000000000000830492506040015b6d04ee2d6d415b85acef81000000008310611968576d04ee2d6d415b85acef8100000000830492506020015b662386f26fc10000831061198657662386f26fc10000830492506010015b6305f5e100831061199e576305f5e100830492506008015b61271083106119b257612710830492506004015b606483106119c4576064830492506002015b600a83106103905760010192915050565b6001600160a01b038216611a2b5760405162461bcd60e51b815260206004820181905260248201527f4552433732313a206d696e7420746f20746865207a65726f206164647265737360448201526064016104df565b6000818152600260205260409020546001600160a01b031615611a905760405162461bcd60e51b815260206004820152601c60248201527f4552433732313a20746f6b656e20616c7265616479206d696e7465640000000060448201526064016104df565b611a9e6000838360016114bf565b6000818152600260205260409020546001600160a01b031615611b035760405162461bcd60e51b815260206004820152601c60248201527f4552433732313a20746f6b656e20616c7265616479206d696e7465640000000060448201526064016104df565b6001600160a01b038216600081815260036020908152604080832080546001019055848352600290915280822080546001600160a01b0319168417905551839291907fddf252ad1be2c89b69c2b068fc378daa952ba7f163c4a11628f55a4df523b3ef908290a45050565b6001600160e01b031981168114610a6957600080fd5b600060208284031215611b9657600080fd5b81356116e181611b6e565b60005b83811015611bbc578181015183820152602001611ba4565b50506000910152565b60008151808452611bdd816020860160208601611ba1565b601f01601f19169290920160200192915050565b6020815260006116e16020830184611bc5565b600060208284031215611c1657600080fd5b5035919050565b80356001600160a01b0381168114611c3457600080fd5b919050565b60008060408385031215611c4c57600080fd5b611c5583611c1d565b946020939093013593505050565b634e487b7160e01b600052604160045260246000fd5b604051601f8201601f1916810167ffffffffffffffff81118282101715611ca257611ca2611c63565b604052919050565b60008060408385031215611cbd57600080fd5b8235915060208084013567ffffffffffffffff80821115611cdd57600080fd5b818601915086601f830112611cf157600080fd5b813581811115611d0357611d03611c63565b8060051b9150611d14848301611c79565b8181529183018401918481019089841115611d2e57600080fd5b938501935b83851015611d4c57843582529385019390850190611d33565b8096505050505050509250929050565b600080600060608486031215611d7157600080fd5b611d7a84611c1d565b9250611d8860208501611c1d565b9150604084013590509250925092565b600060208284031215611daa57600080fd5b6116e182611c1d565b60008060408385031215611dc657600080fd5b611dcf83611c1d565b915060208301358015158114611de457600080fd5b809150509250929050565b600060a08284031215611e0157600080fd5b82601f830112611e1057600080fd5b60405160a0810181811067ffffffffffffffff82111715611e3357611e33611c63565b6040528060a0840185811115611e4857600080fd5b845b81811015611e62578035835260209283019201611e4a565b509195945050505050565b60008060008060808587031215611e8357600080fd5b611e8c85611c1d565b93506020611e9b818701611c1d565b935060408601359250606086013567ffffffffffffffff80821115611ebf57600080fd5b818801915088601f830112611ed357600080fd5b813581811115611ee557611ee5611c63565b611ef7601f8201601f19168501611c79565b91508082528984828501011115611f0d57600080fd5b808484018584013760008482840101525080935050505092959194509250565b60008060408385031215611f4057600080fd5b611f4983611c1d565b9150611f5760208401611c1d565b90509250929050565b600181811c90821680611f7457607f821691505b602082108103611f9457634e487b7160e01b600052602260045260246000fd5b50919050565b600060208284031215611fac57600080fd5b5051919050565b634e487b7160e01b600052603260045260246000fd5b600082611fe657634e487b7160e01b600052601260045260246000fd5b500690565b634e487b7160e01b600052601160045260246000fd5b8082018082111561039057610390611feb565b60006001820161202657612026611feb565b5060010190565b6000835161203f818460208801611ba1565b835190830190612053818360208801611ba1565b01949350505050565b60006001600160a01b0380871683528086166020840152508360408301526080606083015261208e6080830184611bc5565b9695505050505050565b6000602082840312156120aa57600080fd5b81516116e181611b6e565b601f82111561059e57600081815260208120601f850160051c810160208610156120dc5750805b601f850160051c820191505b818110156120fb578281556001016120e8565b505050505050565b815167ffffffffffffffff81111561211d5761211d611c63565b6121318161212b8454611f60565b846120b5565b602080601f831160018114612166576000841561214e5750858301515b600019600386901b1c1916600185901b1785556120fb565b600085815260208120601f198616915b8281101561219557888601518255948401946001909101908401612176565b50858210156121b35787850151600019600388901b60f8161c191681555b5050505050600190811b0190555056fea26469706673582212204591921826f5706ab8d197bb421b0761b4ed39dffaf96d22f549cc2e744f1d1a64736f6c6343000814003368747470733a2f2f736361726c65742d6c6976652d696775616e612d3735392e6d7970696e6174612e636c6f75642f697066732f516d50486146743535506569646743755865326b616552596d4c61425550453159374b67347444797a61705a487968747470733a2f2f736361726c65742d6c6976652d696775616e612d3735392e6d7970696e6174612e636c6f75642f697066732f516d536e4e586f35687872466e706279426562376a59376a686b6d3565796b6e6143587472386d756b333141484b68747470733a2f2f736361726c65742d6c6976652d696775616e612d3735392e6d7970696e6174612e636c6f75642f697066732f516d4e7034734866346363715070714d4255435347314370467746523444366b674865737863316d4c733735616d68747470733a2f2f736361726c65742d6c6976652d696775616e612d3735392e6d7970696e6174612e636c6f75642f697066732f516d61726b6b6744754255636e716b736174507a5538754e53346f364c54624574754b343350374a797468394e4868747470733a2f2f736361726c65742d6c6976652d696775616e612d3735392e6d7970696e6174612e636c6f75642f697066732f516d50397043394a7555704b636e6a556b384742584557565447764b3346546a584c393151334d4a327268413136",
  "linkReferences": {},
  "deployedLinkReferences": {}
}